S00C00006D61696E2E7372656373
S315080000000000022069060008890100089701000817
S315080000109D010008A3010008A901000800000000CE
S31508000020000000000000000000000000AF0100080A
S31508000030BD01000800000000CB010008D901000836
S31508000040AD060008AD060008AD060008AD060008B6
S31508000050AD060008AD060008C9030008AD0600088D
S31508000060AD060008AD060008AD060008AD06000896
S31508000070AD060008AD060008AD060008AD06000886
S31508000080AD060008AD060008AD060008AD06000876
S31508000090AD060008AD060008AD060008AD06000866
S315080000A0AD060008AD060008AD060008AD06000856
S315080000B0AD060008AD060008AD060008AD06000846
S315080000C0AD060008AD060008AD060008AD06000836
S315080000D0AD060008AD060008AD060008AD06000826
S315080000E0AD060008AD060008AD060008AD06000816
S315080000F0AD060008AD060008AD060008AD06000806
S31508000100AD060008AD060008AD060008AD060008F5
S31508000110AD060008AD0600085D050008AD06000836
S31508000120AD060008AD060008AD060008AD060008D5
S31508000130AD060008AD060008AD060008AD060008C5
S31508000140AD060008AD060008AD060008AD060008B5
S31508000150AD060008AD060008AD060008AD060008A5
S31508000160AD060008AD060008AD060008AD06000895
S31508000170AD060008AD060008AD060008AD06000885
S30D08000180AD060008AD060008F3
S3150800018880B400AF00BFBD465DF8047B704780B4F5
S3150800019800AFFEE780B400AFFEE780B400AFFEE725
S315080001A880B400AFFEE780B400AF00BFBD465DF877
S315080001B8047B704780B400AF00BFBD465DF8047B7A
S315080001C8704780B400AF00BFBD465DF8047B704732
S315080001D880B400AF00BFBD465DF8047B70470000D9
S315080001E880B500AF164A164BD3F8883043F4700327
S315080001F8C2F88830134A134B1B6843F0010313608F
S31508000208104B00229A600F4A0E4B1B6823F0847322
S3150800021823F4803313600B4B0B4A5A60094A094B7F
S315080002281B6823F480231360064B0022DA6000F06B
S315080002380DF8034B4FF000629A6000BF80BD00BFFF
S3150800024800ED00E0003802401030002480B483B086
S3150800025800AF00237B6000233B60364A354B1B689A
S3150800026843F480331360334B1B6803F400333B6055
S315080002787B6801337B603B68002B03D17B68B3F549
S31508000288A04FF0D12B4B1B6803F40033002B02D088
S3150800029801233B6001E000233B603B68012B42D108
S315080002A8244A244B1B6C43F080531364224A224B7E
S315080002B81B6843F4404313601E4A1E4B9B689360B1
S315080002C81C4A1C4B9B6843F400439360194A194B14
S315080002D89B6843F4A0539360164B184A5A60154A0C
S315080002E8144B1B6843F08073136000BF114B1B68DF
S315080002F803F00073002BF9D0114B40F205721A600F
S315080003080C4A0C4B9B6823F003039360094A094B74
S315080003189B6843F00203936000BF064B9B6803F093
S315080003280C03082BF9D100BF0C37BD465DF8047BD2
S31508000338704700BF00380240007000401954400753
S31508000348003C024080B483B000AF0346FB710949FC
S3150800035897F907305B09FA7902F01F02012000FABB
S3150800036802F241F8232000BF0C37BD465DF8047B2E
S31508000378704700BF00E100E080B584B000AF0021F7
S31508000388002000F0CFFA0123BB6000233B73082343
S315080003987B730123BB7307F10803184600F0E6F9D7
S315080003A806233B7102237B710223BB710123FB7170
S315080003B83B1D184600F078F900BF1037BD4680BDCA
S315080003C880B500AF012000F043FA0346002B04D09D
S315080003D800F09EF8012000F055FA00BF80BD00BF66
S315080003E880B485B000AF78607B68013B032B3AD8A8
S315080003F801A252F823F000BF1104000829040008D6
S3150800040841040008590400081A4B4FF6FF725A832C
S31508000418184B4FF480521A837B680133FB6022E03D
S31508000428144B4FF6FF725A83124B4FF400521A8335
S315080004387B680133FB6016E00E4B4FF6FF725A8352
S315080004480C4B4FF480421A837B680133FB600AE041
S31508000458084B4FF6FF725A83064B4FF400421A832D
S315080004680123FB6000BFFB6818461437BD465DF8D4
S31508000478047B7047000C024080B485B000AF7860F2
S315080004887B68013B032B3AD801A252F823F000BF38
S31508000498A9040008BF040008D7040008EF040008E8
S315080004A81A4B4FF6FF725A83184B4FF480521A8329
S315080004B80423FB6023E0154B4FF6FF725A83134B50
S315080004C84FF400521A837B68013BFB6017E00F4B19
S315080004D84FF6FF725A830D4B4FF480421A837B6896
S315080004E8013BFB600BE0094B4FF6FF725A83074B3B
S315080004F84FF400421A837B68013BFB6000BFFB6828
S3150800050818461437BD465DF8047B7047000C024050
S3150800051880B483B000AF00237B6002E07B680133B8
S315080005287B607B6841F287329342F7DD084B1B688C
S31508000538002B03D0064B00221A6002E0044B012266
S315080005481A6000BF0C37BD465DF8047B704700BFCC
S315080005580400002080B500AF0121104800F0EEFA2B
S315080005680346002B18D001210C4800F011FB0C4B50
S315080005781B68002B08D00B4B1B681846FFF730FF83
S315080005880246084B1A6007E0064B1B681846FFF731
S3150800059873FF0246034B1A6000BF80BD0010004077
S315080005A8040000200000002080B584B000AF0121B7
S315080005B8102000F097F93B1D184600F061FA45F639
S315080005C8BF53BB8040F6B833BB603B1D1946094884
S315080005D800F0EAF901220121064800F08BFA012108
S315080005E8044800F067FA3620FFF7ACFE00BF10375C
S315080005F8BD4680BD0010004080B582B000AF01211D
S31508000608082000F04FF94FF470433B6001233B7113
S315080006180023BB7103237B710023FB713B461946F4
S315080006280D4800F0C6FA0121012000F03BF9012324
S315080006383B6000233B710023FB713B46194607487C
S3150800064800F0B7FA044B4FF6FF725A83FFF794FE89
S31508000658FFF7AAFFFEE700BF000C024000000240B1
S31508000668002103E00A4B5B584350043109480A4BFA
S3150800067842189A42F6D3094A02E0002342F8043B94
S31508000688074B9A42F9D3FFF7ABFDFFF7B5FF70475B
S31508000698D80C0008000000200400002004000020F0
S315080006A804000020FEE7000080B485B000AF78603B
S315080006B80023FB730023BB730F237B737B68DB78EC
S315080006C8002B39D0274BDB68DB431B0ADBB203F068
S315080006D80703FB73FB7BC3F10403BB737A7BFB7BC2
S315080006E842FA03F37B737B685B781A46BB7B02FA8C
S315080006F803F3FB737B689A787B7B1340DAB2FB7B40
S315080007081343FB73FB7B1B01FB73174A7B681B7838
S315080007181344FA7B83F80023134A7B681B785B0922
S31508000728DBB218467B681B7803F01F03012101FA20
S3150800073803F342F820300FE00B497B681B785B0906
S31508000748DBB218467B681B7803F01F0301229A4020
S3150800075800F1200341F8232000BF1437BD465DF891
S31508000768047B704700ED00E000E100E080B485B046
S3150800077800AF78600023FB60344BFB607B689B798D
S31508000788002B4FD03149314B1A687B681B68DB430D
S3150800079813400B602D492D4B5A687B681B68DB4351
S315080007A813404B607B681B791A46FB681344FB6049
S315080007B8FB68FA6811687A6812680A431A60234956
S315080007C8224B9A687B681B68DB4313408B601F497A
S315080007D81E4BDA687B681B68DB431340CB607B6873
S315080007E85B79102B0ED11949184B9A687B681B68D8
S315080007F813438B601549154BDA687B681B681343E6
S31508000808CB601DE0114BFB607B685B791A46FB6879
S315080008181344FB60FB68FA6811687A6812680A4329
S315080008281A600DE07B681B791A46FB681344FB605F
S31508000838FB68FA6811687A681268D2430A401A602F
S3150800084800BF1437BD465DF8047B7047003C01407D
S3150800085880B485B000AF78600023FB73084B5A69EB
S315080008687B681340002B02D00123FB7301E00023A9
S31508000878FB73FB7B18461437BD465DF8047B704747
S31508000888003C014080B483B000AF7860044A7B68B6
S31508000898536100BF0C37BD465DF8047B704700BF3F
S315080008A8003C014080B483B000AF78600B46FB700B
S315080008B8FB78002B06D00A49094B1A6B7B68134349
S315080008C80B6306E00649064B1A6B7B68DB43134045
S315080008D80B6300BF0C37BD465DF8047B704700BF45
S315080008E80038024080B483B000AF78600B46FB70CE
S315080008F8FB78002B06D00A49094B1A6C7B68134308
S315080009080B6406E00649064B1A6C7B68DB43134002
S315080009180B6400BF0C37BD465DF8047B704700BF03
S315080009280038024090B484B000AF03460A46FB710B
S315080009381346BB710023FB60BB7903F003039B00D6
S315080009480F2202FA03F3FB601649BB799B08DBB250
S315080009581846144ABB799B08DBB2023352F823209F
S31508000968FB68DB431A40831C41F823200D48BB79F2
S315080009789B08DBB21C460B4ABB799B08DBB20233E1
S3150800098852F82320F979BB7903F003039B0001FA8F
S3150800099803F31A43A31C40F8232000BF1037BD46AB
S315080009A890BC70470038014080B485B000AF7860C5
S315080009B839600023FB817B681B88FB817B68294A91
S315080009C8934213D07B68284A93420FD07B68B3F1C9
S315080009D8804F0BD07B68254A934207D07B68244A08
S315080009E8934203D07B68234A934208D1FB8923F0B4
S315080009F87003FB813B685A88FB891343FB817B6834
S31508000A081D4A93420CD07B681C4A934208D0FB893E
S31508000A1823F44073FB813B681A89FB891343FB81DE
S31508000A287B68FA891A803B685A687B68DA623B6889
S31508000A381A887B681A857B680A4A934203D07B68BA
S31508000A48094A934204D13B689B7A9AB27B681A860C
S31508000A587B6801229A8200BF1437BD465DF8047B7D
S31508000A68704700BF00000140000401400004004030
S31508000A7800080040000C0040001000400014004028
S31508000A8880B483B000AF78607B684FF0FF325A6055
S31508000A987B6800221A807B6800221A817B680022FC
S31508000AA85A807B6800229A7200BF0C37BD465DF8EB
S31508000AB8047B704780B483B000AF78600B46FB7040
S31508000AC8FB78002B08D07B681B889BB243F0010390
S31508000AD89AB27B681A8007E07B681B889BB223F06A
S31508000AE801039AB27B681A8000BF0C37BD465DF8C9
S31508000AF8047B704780B483B000AF78600B467B8070
S31508000B0813467B707B78002B08D07B689B899AB242
S31508000B187B8813439AB27B689A8109E07B689B892C
S31508000B289AB27B88DB439BB213409AB27B689A8158
S31508000B3800BF0C37BD465DF8047B704780B485B0A6
S31508000B4800AF78600B467B800023FB730023BB81CC
S31508000B5800237B817B681B8A9AB27B881340BB81FA
S31508000B687B689B899AB27B8813407B81BB89002B5B
S31508000B7805D07B89002B02D00123FB7301E00023F3
S31508000B88FB73FB7B18461437BD465DF8047B704734
S31508000B9880B483B000AF78600B467B807B88DB43E4
S31508000BA89AB27B681A8200BF0C37BD465DF8047B8B
S31508000BB8704780B487B000AF7860396000237B61DE
S31508000BC800233B610023FB6000237B6176E001225A
S31508000BD87B6902FA03F33B613B681A683B69134071
S31508000BE8FB60FA683B699A4265D17B681A687B6933
S31508000BF85B00032101FA03F3DB431A407B681A609A
S31508000C087B681A683B681B7919467B695B0001FA99
S31508000C1803F31A437B681A603B681B79012B03D0D8
S31508000C283B681B79022B2ED17B689A687B695B0027
S31508000C38032101FA03F3DB431A407B689A607B6851
S31508000C489A683B685B7919467B695B0001FA03F386
S31508000C581A437B689A607B685A687B699BB219460F
S31508000C6801238B40DB431A407B685A607B685B68C4
S31508000C783A68927911467A6992B201FA02F292B200
S31508000C881A437B685A607B68DA687B699BB25B00A3
S31508000C98032101FA03F3DB431A407B68DA607B68B1
S31508000CA8DA683B68DB7919467B695B0001FA03F366
S31508000CB81A437B68DA607B6901337B617B690F2B92
S31508000CC885D900BF1C37BD465DF8047B7047000010
S30908000CD80100000009
S7050800018869
