S00C00006D61696E2E7372656373
S3150800000000000220C90500088901000897010008B8
S315080000109D010008A3010008A901000800000000CE
S31508000020000000000000000000000000AF0100080A
S31508000030BD01000800000000CB010008D901000836
S315080000400D0600080D0600080D0600080D06000836
S315080000500D0600080D060008950300080D060008A1
S315080000600D0600080D0600080D0600080D06000816
S315080000700D0600080D0600080D0600080D06000806
S315080000800D0600080D0600080D0600080D060008F6
S315080000900D0600080D0600080D0600080D060008E6
S315080000A00D0600080D0600080D0600080D060008D6
S315080000B00D0600080D0600080D0600080D060008C6
S315080000C00D0600080D0600080D0600080D060008B6
S315080000D00D0600080D0600080D0600080D060008A6
S315080000E00D0600080D0600080D0600080D06000896
S315080000F00D0600080D0600080D0600080D06000886
S315080001000D0600080D0600080D0600080D06000875
S315080001100D0600080D0600080D0600080D06000865
S315080001200D0600080D0600080D0600080D06000855
S315080001300D0600080D0600080D0600080D06000845
S315080001400D0600080D0600080D0600080D06000835
S315080001500D0600080D0600080D0600080D06000825
S315080001600D0600080D0600080D0600080D06000815
S315080001700D0600080D0600080D0600080D06000805
S30D080001800D0600080D06000833
S3150800018880B400AF00BFBD465DF8047B704780B4F5
S3150800019800AFFEE780B400AFFEE780B400AFFEE725
S315080001A880B400AFFEE780B400AF00BFBD465DF877
S315080001B8047B704780B400AF00BFBD465DF8047B7A
S315080001C8704780B400AF00BFBD465DF8047B704732
S315080001D880B400AF00BFBD465DF8047B70470000D9
S315080001E880B500AF164A164BD3F8883043F4700327
S315080001F8C2F88830134A134B1B6843F0010313608F
S31508000208104B00229A600F4A0E4B1B6823F0847322
S3150800021823F4803313600B4B0B4A5A60094A094B7F
S315080002281B6823F480231360064B0022DA6000F06B
S315080002380DF8034B4FF000629A6000BF80BD00BFFF
S3150800024800ED00E0003802401030002480B483B086
S3150800025800AF00237B6000233B60364A354B1B689A
S3150800026843F480331360334B1B6803F400333B6055
S315080002787B6801337B603B68002B03D17B68B3F549
S31508000288A04FF0D12B4B1B6803F40033002B02D088
S3150800029801233B6001E000233B603B68012B42D108
S315080002A8244A244B1B6C43F080531364224A224B7E
S315080002B81B6843F4404313601E4A1E4B9B689360B1
S315080002C81C4A1C4B9B6843F400439360194A194B14
S315080002D89B6843F4A0539360164B184A5A60154A0C
S315080002E8144B1B6843F08073136000BF114B1B68DF
S315080002F803F00073002BF9D0114B40F205721A600F
S315080003080C4A0C4B9B6823F003039360094A094B74
S315080003189B6843F00203936000BF064B9B6803F093
S315080003280C03082BF9D100BF0C37BD465DF8047BD2
S31508000338704700BF00380240007000401954400753
S31508000348003C024080B584B000AF0021002000F0D0
S3150800035879FA0123BB6000233B7308237B730123C7
S31508000368BB7307F10803184600F0B0F906233B717A
S3150800037802237B710223BB710123FB713B1D1846BF
S3150800038800F042F900BF1037BD4680BD80B500AF02
S31508000398012000F00DFA0346002B04D000F09EF861
S315080003A8012000F01FFA00BF80BD00BF80B485B0E9
S315080003B800AF78607B68013B032B3AD801A252F854
S315080003C823F000BFDD030008F50300080D04000844
S315080003D8250400081A4B4FF6FF725A83184B4FF438
S315080003E880521A837B680133FB6022E0144B4FF670
S315080003F8FF725A83124B4FF400521A837B680133F3
S31508000408FB6016E00E4B4FF6FF725A830C4B4FF4FF
S3150800041880421A837B680133FB600AE0084B4FF673
S31508000428FF725A83064B4FF400421A830123FB6076
S3150800043800BFFB6818461437BD465DF8047B70474D
S31508000448000C024080B485B000AF78607B68013B39
S31508000458032B3AD801A252F823F000BF7504000806
S315080004688B040008A3040008BB0400081A4B4FF6BF
S31508000478FF725A83184B4FF480521A830423FB6081
S3150800048823E0154B4FF6FF725A83134B4FF400526D
S315080004981A837B68013BFB6017E00F4B4FF6FF7228
S315080004A85A830D4B4FF480421A837B68013BFB60E5
S315080004B80BE0094B4FF6FF725A83074B4FF400427D
S315080004C81A837B68013BFB6000BFFB681846143734
S315080004D8BD465DF8047B7047000C024080B483B0C3
S315080004E800AF00237B6002E07B6801337B607B6892
S315080004F841F287329342F7DD084B1B68002B03D07D
S31508000508064B00221A6002E0044B01221A6000BF5B
S315080005180C37BD465DF8047B704700BF0000002015
S3150800052880B586B000AF0023FB7301237B610121E8
S31508000538082000F067F94FF470437B6001233B728B
S315080005480023BB7203237B720023FB723B1D1946EB
S31508000558174800F0B9F90121012000F053F90123E1
S315080005687B6000233B720023FB723B1D194611482A
S3150800057800F0AAF90E4B4FF6FF725A83FFF7E2FE10
S315080005880D4B1B68002B04D07869FFF70FFF7861BD
S3150800059803E07869FFF756FF786100233B6102E0BC
S315080005A83B6901333B613B69044A9342F8DDE7E757
S315080005B8000C024000000240000000201FA10700AE
S315080005C8002103E00A4B5B584350043109480A4B9B
S315080005D842189A42F6D3094A02E0002342F8043B35
S315080005E8074B9A42F9D3FFF7FBFDFFF799FF7047C8
S315080005F8EC09000800000020000000200000002088
S3150800060800000020FEE7000080B485B000AF7860DF
S315080006180023FB730023BB730F237B737B68DB788C
S31508000628002B39D0274BDB68DB431B0ADBB203F008
S315080006380703FB73FB7BC3F10403BB737A7BFB7B62
S3150800064842FA03F37B737B685B781A46BB7B02FA2C
S3150800065803F3FB737B689A787B7B1340DAB2FB7BE0
S315080006681343FB73FB7B1B01FB73174A7B681B78D9
S315080006781344FA7B83F80023134A7B681B785B09C3
S31508000688DBB218467B681B7803F01F03012101FAC1
S3150800069803F342F820300FE00B497B681B785B09A7
S315080006A8DBB218467B681B7803F01F0301229A40C1
S315080006B800F1200341F8232000BF1437BD465DF832
S315080006C8047B704700ED00E000E100E080B485B0E7
S315080006D800AF78600023FB60344BFB607B689B792E
S315080006E8002B4FD03149314B1A687B681B68DB43AE
S315080006F813400B602D492D4B5A687B681B68DB43F2
S3150800070813404B607B681B791A46FB681344FB60E9
S31508000718FB68FA6811687A6812680A431A602349F6
S31508000728224B9A687B681B68DB4313408B601F491A
S315080007381E4BDA687B681B68DB431340CB607B6813
S315080007485B79102B0ED11949184B9A687B681B6878
S3150800075813438B601549154BDA687B681B68134386
S31508000768CB601DE0114BFB607B685B791A46FB681A
S315080007781344FB60FB68FA6811687A6812680A43CA
S315080007881A600DE07B681B791A46FB681344FB6000
S31508000798FB68FA6811687A681268D2430A401A60D0
S315080007A800BF1437BD465DF8047B7047003C01401E
S315080007B880B485B000AF78600023FB73084B5A698C
S315080007C87B681340002B02D00123FB7301E000234A
S315080007D8FB73FB7B18461437BD465DF8047B7047E8
S315080007E8003C014080B483B000AF7860044A7B6857
S315080007F8536100BF0C37BD465DF8047B704700BFE0
S31508000808003C014080B483B000AF78600B46FB70AB
S31508000818FB78002B06D00A49094B1A6B7B681343E9
S315080008280B6306E00649064B1A6B7B68DB431340E5
S315080008380B6300BF0C37BD465DF8047B704700BFE5
S315080008480038024090B484B000AF03460A46FB71EC
S315080008581346BB710023FB60BB7903F003039B00B7
S315080008680F2202FA03F3FB601649BB799B08DBB231
S315080008781846144ABB799B08DBB2023352F8232080
S31508000888FB68DB431A40831C41F823200D48BB79D3
S315080008989B08DBB21C460B4ABB799B08DBB20233C2
S315080008A852F82320F979BB7903F003039B0001FA70
S315080008B803F31A43A31C40F8232000BF1037BD468C
S315080008C890BC70470038014080B487B000AF7860A4
S315080008D8396000237B6100233B610023FB6000230A
S315080008E87B6176E001227B6902FA03F33B613B6888
S315080008F81A683B691340FB60FA683B699A4265D1F6
S315080009087B681A687B695B00032101FA03F3DB43FA
S315080009181A407B681A607B681A683B681B7919460F
S315080009287B695B0001FA03F31A437B681A603B6824
S315080009381B79012B03D03B681B79022B2ED17B68C8
S315080009489A687B695B00032101FA03F3DB431A40C3
S315080009587B689A607B689A683B685B7919467B6905
S315080009685B0001FA03F31A437B689A607B685A6846
S315080009787B699BB2194601238B40DB431A407B6887
S315080009885A607B685B683A68927911467A6992B2C6
S3150800099801FA02F292B21A437B685A607B68DA68EF
S315080009A87B699BB25B00032101FA03F3DB431A4018
S315080009B87B68DA607B68DA683B68DB7919467B69A5
S315080009C85B0001FA03F31A437B68DA607B69013333
S315080009D87B617B690F2B85D900BF1C37BD465DF83F
S309080009E8047B7047C7
S7050800018869
