:020000040800F2
:10000000000002200505000889010008970100088A
:100010009D010008A3010008A901000800000000DC
:10002000000000000000000000000000AF01000818
:10003000BD01000800000000CB010008D901000844
:100040004905000849050008490500084905000858
:100050004905000849050008490500084905000848
:100060004905000849050008490500084905000838
:100070004905000849050008490500084905000828
:100080004905000849050008490500084905000818
:100090004905000849050008490500084905000808
:1000A00049050008490500084905000849050008F8
:1000B00049050008490500084905000849050008E8
:1000C00049050008490500084905000849050008D8
:1000D00049050008490500084905000849050008C8
:1000E00049050008490500084905000849050008B8
:1000F00049050008490500084905000849050008A8
:100100004905000849050008490500084905000897
:1001100049050008490500081904000849050008B8
:100120004905000849050008490500084905000877
:100130004905000849050008490500084905000867
:100140004905000849050008490500084905000857
:100150004905000849050008490500084905000847
:100160004905000849050008490500084905000837
:100170004905000849050008490500084905000827
:080180004905000849050008CB
:1001880080B400AF00BFBD465DF8047B704780B403
:1001980000AFFEE780B400AFFEE780B400AFFEE733
:1001A80080B400AFFEE780B400AF00BFBD465DF885
:1001B800047B704780B400AF00BFBD465DF8047B88
:1001C800704780B400AF00BFBD465DF8047B704740
:1001D80080B400AF00BFBD465DF8047B70470000E7
:1001E80080B500AF164A164BD3F8883043F4700335
:1001F800C2F88830134A134B1B6843F0010313609D
:10020800104B00229A600F4A0E4B1B6823F0847330
:1002180023F4803313600B4B0B4A5A60094A094B8D
:100228001B6823F480231360064B0022DA6000F079
:100238000DF8034B4FF000629A6000BF80BD00BF0D
:1002480000ED00E0003802401030002480B483B094
:1002580000AF00237B6000233B60364A354B1B68A8
:1002680043F480331360334B1B6803F400333B6063
:100278007B6801337B603B68002B03D17B68B3F557
:10028800A04FF0D12B4B1B6803F40033002B02D096
:1002980001233B6001E000233B603B68012B42D116
:1002A800244A244B1B6C43F080531364224A224B8C
:1002B8001B6843F4404313601E4A1E4B9B689360BF
:1002C8001C4A1C4B9B6843F400439360194A194B22
:1002D8009B6843F4A0539360164B184A5A60154A1A
:1002E800144B1B6843F08073136000BF114B1B68ED
:1002F80003F00073002BF9D0114B40F205721A601D
:100308000C4A0C4B9B6823F003039360094A094B82
:100318009B6843F00203936000BF064B9B6803F0A1
:100328000C03082BF9D100BF0C37BD465DF8047BE0
:10033800704700BF00380240007000401954400761
:10034800003C024080B483B000AF0346FB7109490A
:1003580097F907305B09FA7902F01F02012000FAC9
:1003680002F241F8232000BF0C37BD465DF8047B3C
:10037800704700BF00E100E080B485B000AF78604E
:100388007B68013B032B3AD801A252F823F000BF47
:10039800A9030008C1030008D9030008F1030008F5
:1003A8001A4B4FF6FF725A83184B4FF480521A8338
:1003B8007B680133FB6022E0144B4FF6FF725A83CF
:1003C800124B4FF400521A837B680133FB6016E02E
:1003D8000E4B4FF6FF725A830C4B4FF480421A8330
:1003E8007B680133FB600AE0084B4FF6FF725A83C3
:1003F800064B4FF400421A830123FB6000BFFB68E1
:1004080018461437BD465DF8047B7047000C02405F
:1004180080B500AF01210A4800F09EF90346002B81
:100428000BD00121064800F0C1F9064B1B6818469D
:10043800FFF7A2FF0246034B1A6000BF80BD00BF52
:10044800001000400000002080B584B000AF0121FA
:10045800102000F097F83B1D184600F01FF945F6EC
:10046800BF53BB8040F6B833BB603B1D19460948F3
:1004780000F0A8F801220121064800F049F90121FD
:10048800044800F025F93620FFF75CFF00BF10375D
:10049800BD4680BD0010004080B582B000AF01218C
:1004A800082000F04FF84FF470433B6001233B7184
:1004B8000023BB7103237B710023FB713B46194664
:1004C8000C4800F084F90121012000F03BF80123D9
:1004D8003B6000233B710023FB713B4619460648ED
:1004E80000F075F9034B4FF6FF725A83FFF7ACFF24
:1004F800FEE700BF000C024000000240002103E0BC
:100508000A4B5B584350043109480A4B42189A4237
:10051800F6D3094A02E0002342F8043B074B9A420B
:10052800F9D3FFF75DFEFFF7B7FF7047F40800083F
:100538000000002004000020040000200400002027
:10054800FEE7000080B483B000AF78600B46FB7014
:10055800FB78002B06D00A49094B1A6B7B681343BA
:100568000B6306E00649064B1A6B7B68DB431340B6
:100578000B6300BF0C37BD465DF8047B704700BFB6
:100588000038024080B483B000AF78600B46FB703F
:10059800FB78002B06D00A49094B1A6C7B68134379
:1005A8000B6406E00649064B1A6C7B68DB43134074
:1005B8000B6400BF0C37BD465DF8047B704700BF75
:1005C8000038024080B485B000AF786039600023FD
:1005D800FB817B681B88FB817B68294A934213D087
:1005E8007B68284A93420FD07B68B3F1804F0BD0C9
:1005F8007B68254A934207D07B68244A934203D0FC
:100608007B68234A934208D1FB8923F07003FB815E
:100618003B685A88FB891343FB817B681D4A9342D8
:100628000CD07B681C4A934208D0FB8923F44073A2
:10063800FB813B681A89FB891343FB817B68FA8934
:100648001A803B685A687B68DA623B681A887B685C
:100658001A857B680A4A934203D07B68094A934209
:1006680004D13B689B7A9AB27B681A867B68012220
:100678009A8200BF1437BD465DF8047B704700BFFF
:100688000000014000040140000400400008004050
:10069800000C0040001000400014004080B483B0FB
:1006A80000AF78607B684FF0FF325A607B680022A9
:1006B8001A807B6800221A817B6800225A807B6836
:1006C80000229A7200BF0C37BD465DF8047B704764
:1006D80080B483B000AF78600B46FB70FB78002BCA
:1006E80008D07B681B889BB243F001039AB27B68F1
:1006F8001A8007E07B681B889BB223F001039AB23B
:100708007B681A8000BF0C37BD465DF8047B7047D4
:1007180080B483B000AF78600B467B8013467B7053
:100728007B78002B08D07B689B899AB27B8813431F
:100738009AB27B689A8109E07B689B899AB27B8828
:10074800DB439BB213409AB27B689A8100BF0C3797
:10075800BD465DF8047B704780B485B000AF786013
:100768000B467B800023FB730023BB8100237B8126
:100778007B681B8A9AB27B881340BB817B689B8904
:100788009AB27B8813407B81BB89002B05D07B897B
:10079800002B02D00123FB7301E00023FB73FB7BDA
:1007A80018461437BD465DF8047B704780B483B0A3
:1007B80000AF78600B467B807B88DB439AB27B680E
:1007C8001A8200BF0C37BD465DF8047B704780B4C1
:1007D80087B000AF7860396000237B6100233B61FC
:1007E8000023FB6000237B6176E001227B6902FA2B
:1007F80003F33B613B681A683B691340FB60FA6886
:100808003B699A4265D17B681A687B695B00032162
:1008180001FA03F3DB431A407B681A607B681A68A5
:100828003B681B7919467B695B0001FA03F31A439D
:100838007B681A603B681B79012B03D03B681B79E6
:10084800022B2ED17B689A687B695B00032101FA31
:1008580003F3DB431A407B689A607B689A683B68BD
:100868005B7919467B695B0001FA03F31A437B68DD
:100878009A607B685A687B699BB2194601238B4052
:10088800DB431A407B685A607B685B683A689279F8
:1008980011467A6992B201FA02F292B21A437B685F
:1008A8005A607B68DA687B699BB25B00032101FAB6
:1008B80003F3DB431A407B68DA607B68DA683B68DD
:1008C800DB7919467B695B0001FA03F31A437B68FD
:1008D800DA607B6901337B617B690F2B85D900BFA7
:0C08E8001C37BD465DF8047B7047000023
:0408F40001000000FF
:040000050800018866
:00000001FF
