:020000040800F2
:1000000000000220BD0400088901000897010008D3
:100010009D010008A3010008A901000800000000DC
:10002000000000000000000000000000AF01000818
:10003000BD01000800000000CB010008D901000844
:100040000105000801050008010500080105000878
:100050000105000801050008010500080105000868
:100060000105000801050008010500080105000858
:100070000105000801050008010500080105000848
:100080000105000801050008010500080105000838
:100090000105000801050008010500080105000828
:1000A0000105000801050008010500080105000818
:1000B0000105000801050008010500080105000808
:1000C00001050008010500080105000801050008F8
:1000D00001050008010500080105000801050008E8
:1000E00001050008010500080105000801050008D8
:1000F00001050008010500080105000801050008C8
:1001000001050008010500080105000801050008B7
:1001100001050008010500080105000801050008A7
:100120000105000801050008010500080105000897
:100130000105000801050008010500080105000887
:100140000105000801050008010500080105000877
:100150000105000801050008010500080105000867
:100160000105000801050008010500080105000857
:100170000105000801050008010500080105000847
:0801800001050008010500085B
:1001880080B400AF00BFBD465DF8047B704780B403
:1001980000AFFEE780B400AFFEE780B400AFFEE733
:1001A80080B400AFFEE780B400AF00BFBD465DF885
:1001B800047B704780B400AF00BFBD465DF8047B88
:1001C800704780B400AF00BFBD465DF8047B704740
:1001D80080B400AF00BFBD465DF8047B70470000E7
:1001E80080B500AF164A164BD3F8883043F4700335
:1001F800C2F88830134A134B1B6843F0010313609D
:10020800104B00229A600F4A0E4B1B6823F0847330
:1002180023F4803313600B4B0B4A5A60094A094B8D
:100228001B6823F480231360064B0022DA6000F079
:100238000DF8034B4FF000629A6000BF80BD00BF0D
:1002480000ED00E0003802401030002480B483B094
:1002580000AF00237B6000233B60364A354B1B68A8
:1002680043F480331360334B1B6803F400333B6063
:100278007B6801337B603B68002B03D17B68B3F557
:10028800A04FF0D12B4B1B6803F40033002B02D096
:1002980001233B6001E000233B603B68012B42D116
:1002A800244A244B1B6C43F080531364224A224B8C
:1002B8001B6843F4404313601E4A1E4B9B689360BF
:1002C8001C4A1C4B9B6843F400439360194A194B22
:1002D8009B6843F4A0539360164B184A5A60154A1A
:1002E800144B1B6843F08073136000BF114B1B68ED
:1002F80003F00073002BF9D0114B40F205721A601D
:100308000C4A0C4B9B6823F003039360094A094B82
:100318009B6843F00203936000BF064B9B6803F0A1
:100328000C03082BF9D100BF0C37BD465DF8047BE0
:10033800704700BF00380240007000401954400761
:10034800003C024080B485B000AF78607B68013B18
:10035800032B3AD801A252F823F000BF7503000816
:100368008D030008A5030008BD0300081A4B4FF6CB
:10037800FF725A83184B4FF480521A837B680133FB
:10038800FB6022E0144B4FF6FF725A83124B4FF476
:1003980000521A837B680133FB6016E00E4B4FF660
:1003A800FF725A830C4B4FF480421A837B680133E7
:1003B800FB600AE0084B4FF6FF725A83064B4FF476
:1003C80000421A830123FB6000BFFB6818461437FC
:1003D800BD465DF8047B7047000C024080B586B0CE
:1003E80000AF0023FB7301237B610121082000F08B
:1003F800A1F84FF470437B6001233B720023BB726A
:1004080003237B720023FB723B1D1946254800F02D
:10041800B1F80121012000F08DF801237B60002351
:100428003B720023FB723B1D19461F4800F0A2F8DF
:100438001C4B4FF6FF725A831C4A1C4B1B6843F433
:100448008033136000BF194B1B6803F40033002B83
:10045800F9D0164A154B9B6823F003039360134A9F
:10046800124B9B6843F0010393607869FFF76AFFBA
:10047800786101210C4800F00BF90346002B03D0EA
:10048800012000F03BF802E0002000F037F80023DC
:100498003B6102E03B6901333B613B69044A93429B
:1004A800F8DDE2E7000C024000000240003802409C
:1004B8001FA10700002103E00A4B5B584350043199
:1004C80009480A4B42189A42F6D3094A02E0002327
:1004D80042F8043B074B9A42F9D3FFF781FEFFF736
:1004E8007DFF7047CC0600080000002000000020B7
:1004F8000000002000000020FEE7000080B485B066
:1005080000AF78600023FB60094B9B68FB60FB68C9
:1005180023F00303FB60FA687B681343FB60044A1B
:10052800FB68936000BF1437BD465DF8047B7047D5
:100538000038024080B483B000AF78600B46FB708F
:10054800FB78002B06D00A49094B1A6B7B681343CA
:100558000B6306E00649064B1A6B7B68DB431340C6
:100568000B6300BF0C37BD465DF8047B704700BFC6
:100578000038024080B487B000AF7860396000234B
:100588007B6100233B610023FB6000237B6176E0F5
:1005980001227B6902FA03F33B613B681A683B69F5
:1005A8001340FB60FA683B699A4265D17B681A6818
:1005B8007B695B00032101FA03F3DB431A407B6884
:1005C8001A607B681A683B681B7919467B695B006F
:1005D80001FA03F31A437B681A603B681B79012B05
:1005E80003D03B681B79022B2ED17B689A687B6904
:1005F8005B00032101FA03F3DB431A407B689A602E
:100608007B689A683B685B7919467B695B0001FAED
:1006180003F31A437B689A607B685A687B699BB2CC
:10062800194601238B40DB431A407B685A607B687C
:100638005B683A68927911467A6992B201FA02F2D5
:1006480092B21A437B685A607B68DA687B699BB20E
:100658005B00032101FA03F3DB431A407B68DA608D
:100668007B68DA683B68DB7919467B695B0001FACD
:1006780003F31A437B68DA607B6901337B617B692A
:100688000F2B85D900BF1C37BD465DF8047B70472A
:1006980080B485B000AF78600B467B800023FB7385
:1006A8007B681A697B881340002B02D00123FB73F7
:1006B80001E00023FB73FB7B18461437BD465DF849
:0406C800047B7047F8
:040000050800018866
:00000001FF
