:020000040800F2
:10000000000002202106000889010008970100086D
:100010009D010008A3010008A901000800000000DC
:10002000000000000000000000000000AF01000818
:10003000BD01000800000000CB010008D901000844
:1000400065060008650600086506000865060008E4
:1000500065060008650600086506000865060008D4
:1000600065060008650600086506000865060008C4
:1000700065060008650600086506000865060008B4
:1000800065060008650600086506000865060008A4
:100090006506000865060008650600086506000894
:1000A0006506000865060008650600086506000884
:1000B0006506000865060008650600086506000874
:1000C0006506000865060008650600086506000864
:1000D0006506000865060008650600086506000854
:1000E0006506000865060008650600086506000844
:1000F0006506000865060008650600086506000834
:100100006506000865060008650600086506000823
:100110006506000865060008650600086506000813
:100120006506000865060008650600086506000803
:1001300065060008650600086506000865060008F3
:1001400065060008650600086506000865060008E3
:1001500065060008650600086506000865060008D3
:1001600065060008650600086506000865060008C3
:1001700065060008650600086506000865060008B3
:08018000650600086506000891
:1001880080B400AF00BFBD465DF8047B704780B403
:1001980000AFFEE780B400AFFEE780B400AFFEE733
:1001A80080B400AFFEE780B400AF00BFBD465DF885
:1001B800047B704780B400AF00BFBD465DF8047B88
:1001C800704780B400AF00BFBD465DF8047B704740
:1001D80080B400AF00BFBD465DF8047B70470000E7
:1001E80080B500AF164A164BD3F8883043F4700335
:1001F800C2F88830134A134B1B6843F0010313609D
:10020800104B00229A600F4A0E4B1B6823F0847330
:1002180023F4803313600B4B0B4A5A60094A094B8D
:100228001B6823F480231360064B0022DA6000F079
:100238000DF8034B4FF000629A6000BF80BD00BF0D
:1002480000ED00E0003802401030002480B483B094
:1002580000AF00237B6000233B60364A354B1B68A8
:1002680043F480331360334B1B6803F400333B6063
:100278007B6801337B603B68002B03D17B68B3F557
:10028800A04FF0D12B4B1B6803F40033002B02D096
:1002980001233B6001E000233B603B68012B42D116
:1002A800244A244B1B6C43F080531364224A224B8C
:1002B8001B6843F4404313601E4A1E4B9B689360BF
:1002C8001C4A1C4B9B6843F400439360194A194B22
:1002D8009B6843F4A0539360164B184A5A60154A1A
:1002E800144B1B6843F08073136000BF114B1B68ED
:1002F80003F00073002BF9D0114B40F205721A601D
:100308000C4A0C4B9B6823F003039360094A094B82
:100318009B6843F00203936000BF064B9B6803F0A1
:100328000C03082BF9D100BF0C37BD465DF8047BE0
:10033800704700BF00380240007000401954400761
:10034800003C024080B582B000AF0121102000F0CF
:1003580061FB0121022000F05DFB0121082000F073
:1003680059FB4FF428433B6001233B710023BB71C9
:1003780003237B710023FB713B4619460B4800F0B1
:1003880089FB4FF428433B603B461946084800F078
:1003980081FB4FF420633B603B461946054800F05B
:1003A80079FB00BF0837BD4680BD00BF0010024082
:1003B80000040240000C024080B58AB000AF07F18B
:1003C8001003184600F0A2F901214FF4807000F0E4
:1003D80041FB00233B7500237B7500233B62002310
:1003E800FB610023BB61012387F824304FF00073C1
:1003F8003B6107F1100319460E4800F031F900235C
:10040800012201210B4800F003FA00233B6000237E
:100418007B600023BB600023FB603B46184600F06E
:1004280095F90121034800F0B9F900BF2837BD4606
:1004380080BD00BF0020014080B582B000AF01211F
:10044800012000F0E7FA01233B6000233B71002301
:10045800BB7103237B710223FB713B46194613488A
:1004680000F018FB0121012000F0D4FA02233B60C0
:1004780003233B7103237B710023FB713B46194621
:100488000A4800F007FB20233B6001233B7100234F
:10049800BB7103237B710023FB713B46194603485C
:1004A80000F0F8FA00BF0837BD4680BD00000240E2
:1004B80080B582B000AFFFF745FFFFF7BDFFFFF73C
:1004C8007BFF20214F4800F073FB012000F082F9E8
:1004D8004D4800F067FA00BF02214B4800F07FFA50
:1004E8000346002BF8D0484800F06CFA0346FB801E
:1004F8004FF42841454800F06AFB4FF4284144482E
:1005080000F065FB4FF42061424800F060FBFB8877
:10051800002B07D0FB881E2B04D84FF400613B4802
:1005280000F046FBFB881E2B07D9FB883C2B04D820
:100538004FF42051354800F03BFBFB883C2B07D992
:10054800FB885A2B04D84FF42841304800F030FB80
:10055800FB885A2B0CD9FB88782B09D84FF42841F3
:100568002A4800F025FB4FF40061294800F020FBE1
:10057800FB88782B0CD9FB88962B09D84FF4284197
:10058800224800F015FB4FF42051214800F010FBE1
:10059800FB88962B0CD9FB88B42B09D84FF428413B
:1005A8001A4800F005FB4FF42841194800F000FBF9
:1005B800FB88B42B11D9FB88D22B0ED84FF42841D5
:1005C800124800F0F5FA4FF42841114800F0F0FA0B
:1005D8004FF400710F4800F0EBFAFB88D22B7FF63E
:1005E80077AF4FF42841094800F0E2FA4FF4284168
:1005F800074800F0DDFA4FF42061064800F0D8FA09
:1006080066E700BF000002400020014000100240E1
:1006180000040240000C0240002103E00A4B5B5832
:100628004350043109480A4B42189A42F6D3094A02
:1006380002E0002342F8043B074B9A42F9D3FFF744
:10064800CFFDFFF735FF7047F40B000800000020CE
:10065800000000200000002000000020FEE700004D
:1006680080B485B000AF786039600023FB60002358
:10067800FB727B685B68FB60FB6823F0407323F4C4
:100688008073FB603B681B791A023B681B68134345
:10069800FA681343FB607B68FA685A607B689B685A
:1006A800FB60FA68184B1340FB603B681A693B68AB
:1006B800DB681A433B689B681A433B685B795B00BD
:1006C8001343FA681343FB607B68FA689A607B6897
:1006D800DB6AFB60FB6823F47003FB603B681B7DEF
:1006E800013BDAB2FB7A1343FB72FB7A1B05FA680B
:1006F8001343FB607B68FA68DA6200BF1437BD46B3
:100708005DF8047B704700BFFDF7FFC080B483B07D
:1007180000AF78607B6800221A607B6800221A713B
:100728007B6800225A717B6800229A607B680022ED
:10073800DA607B6800221A617B6801221A7500BFA3
:100748000C37BD465DF8047B7047000080B485B067
:1007580000AF78600023FB600E4B5B68FB60FA68B3
:100768000D4B1340FB607B681A687B685B681A4313
:100778007B689B681A437B68DB681343FA681343FA
:10078800FB60044AFB68536000BF1437BD465DF840
:10079800047B704700230140E030FCFF80B483B045
:1007A80000AF78600B46FB70FB78002B06D07B68A7
:1007B8009B6843F001027B689A6005E07B689B6850
:1007C80023F001027B689A6000BF0C37BD465DF8D4
:1007D800047B704780B483B000AF0346FB71FB799C
:1007E800002B06D0094A094B5B6843F400035360A9
:1007F80005E0064A054B5B6823F40003536000BF1D
:100808000C37BD465DF8047B704700BF00230140EC
:1008180080B485B000AF7860084611461A46034692
:10082800FB700B46BB7013467B700023FB600023F4
:10083800BB60FB78092B23D97B68DB68FB60FB78FE
:10084800A3F10A0213465B001344072202FA03F3DA
:10085800BB60BB68DB43FA681340FB607978FB78C0
:10086800A3F10A0213465B00134401FA03F3BB60C9
:10087800FA68BB681343FB607B68FA68DA601EE0BD
:100888007B681B69FB60FA7813465B0013440722F8
:1008980002FA03F3BB60BB68DB43FA681340FB60F2
:1008A8007978FA7813465B00134401FA03F3BB60C6
:1008B800FA68BB681343FB607B68FA681A61BB7807
:1008C800062B21D87B685B6BFB60BB785A1E1346EE
:1008D8009B0013441F2202FA03F3BB60BB68DB438F
:1008E800FA681340FB60F978BB785A1E13469B00E0
:1008F800134401FA03F3BB60FA68BB681343FB6057
:100908007B68FA685A6347E0BB780C2B21D87B6870
:100918001B6BFB60BB78DA1F13469B0013441F2236
:1009280002FA03F3BB60BB68DB43FA681340FB6061
:10093800F978BB78DA1F13469B00134401FA03F3D6
:10094800BB60FA68BB681343FB607B68FA681A638C
:1009580022E07B68DB6AFB60BB78A3F10D021346DB
:100968009B0013441F2202FA03F3BB60BB68DB43FE
:10097800FA681340FB60F978BB78A3F10D021346BF
:100988009B00134401FA03F3BB60FA68BB68134386
:10099800FB607B68FA68DA6200BF1437BD465DF811
:1009A800047B704780B483B000AF78607B689B6835
:1009B80043F080427B689A6000BF0C37BD465DF803
:1009C800047B704780B483B000AF78607B68DB6CD1
:1009D8009BB218460C37BD465DF8047B704780B45F
:1009E80085B000AF78600B46FB700023FB737B6813
:1009F8001A68FB781340002B02D00123FB7301E037
:100A08000023FB73FB7B18461437BD465DF8047B57
:100A18007047000080B483B000AF78600B46FB706D
:100A2800FB78002B06D00A49094B1A6B7B681343E5
:100A38000B6306E00649064B1A6B7B68DB431340E1
:100A48000B6300BF0C37BD465DF8047B704700BFE1
:100A58000038024080B483B000AF78600B46FB706A
:100A6800FB78002B06D00A49094B5A6C7B68134364
:100A78004B6406E00649064B5A6C7B68DB4313401F
:100A88004B6400BF0C37BD465DF8047B704700BF60
:100A98000038024080B487B000AF78603960002326
:100AA8007B6100233B610023FB6000237B6176E0D0
:100AB80001227B6902FA03F33B613B681A683B69D0
:100AC8001340FB60FA683B699A4265D17B681A68F3
:100AD8007B695B00032101FA03F3DB431A407B685F
:100AE8001A607B681A683B681B7919467B695B004A
:100AF80001FA03F31A437B681A603B681B79012BE0
:100B080003D03B681B79022B2ED17B689A687B69DE
:100B18005B00032101FA03F3DB431A407B689A6008
:100B28007B689A683B685B7919467B695B0001FAC8
:100B380003F31A437B689A607B685A687B699BB2A7
:100B4800194601238B40DB431A407B685A607B6857
:100B58005B683A68927911467A6992B201FA02F2B0
:100B680092B21A437B685A607B68DA687B699BB2E9
:100B78005B00032101FA03F3DB431A407B68DA6068
:100B88007B68DA683B68DB7919467B695B0001FAA8
:100B980003F31A437B68DA607B6901337B617B6905
:100BA8000F2B85D900BF1C37BD465DF8047B704705
:100BB80080B483B000AF78600B467B807B687A880E
:100BC8001A8300BF0C37BD465DF8047B704780B4BC
:100BD80083B000AF78600B467B807B687A885A8345
:0C0BE80000BF0C37BD465DF8047B704771
:040000050800018866
:00000001FF
